:100000000C9436000C9453000C9453000C94530041
:100010000C9453000C9453000C9453000C94530014
:100020000C9453000C9453000C9453000C94530004
:100030000C9453000C9453000C9453000C945300F4
:100040000C9453000C9453000C9453000C945300E4
:100050000C945300E700F9000C011F013101440129
:1000600057016A017C018F01A201B50111241FBE55
:10007000CFE5D8E0DEBFCDBF10E0A0E6B0E0E4E71A
:10008000F5E002C005900D92AC37B107D9F720E03A
:10009000ACE7B0E001C01D92A638B207E1F70E94BC
:1000A00055000C94B8020C9400008FE081BB85B31E
:1000B000806F85BB88E30E9442022FEF49E688E10A
:1000C000215040408040E1F700C0000081E00E94E4
:1000D00042029FEF29E648E1915020404040E1F77D
:1000E00000C000008EE00E9442028FEF95EA2EE0F1
:1000F000815090402040E1F700C0000080E690E091
:100100000E945B024FEF89E698E1415080409040A9
:10011000E1F700C0000081E00E9442022FEF49E6B3
:1001200088E1215040408040E1F700C000008CE6AB
:1001300090E00E945B029FEF29E648E19150204049
:100140004040E1F700C0000081E00E9442028FEFD2
:1001500099E628E1815090402040E1F700C000007E
:10016000C12CEE24E394F12C6894992494F8A12CEA
:10017000B12C00E110E084B314BA24B3C7010C2CF5
:1001800002C0880F991F0A94E2F7822B84BBD92CF6
:10019000DC18CA2DDB2D83B390E098010C2E02C031
:1001A000220F331F0A94E2F782239323892B09F04D
:1001B0004DC1D0927D004D2D50E0FA013197EC30C9
:1001C000F10508F0E3C0E65DFF4F0C947D02C70126
:1001D0000E9473028FEF99E628E181509040204001
:1001E000E1F700C0000080917C008F5F80937C006D
:1001F000CDC082E090E00E9473024FEF89E698E163
:10020000415080409040E1F700C0000080917C00A8
:100210008F5F80937C00BAC083E090E00E947302FD
:100220002FEF49E688E1215040408040E1F700C0CF
:10023000000080917C008F5F80937C00A7C081E4E8
:100240000E944F029FEF29E648E191502040404034
:10025000E1F700C0000080917C008F5F80937C00FC
:1002600095C084E090E00E9473028FEF99E628E148
:10027000815090402040E1F700C0000080917C0058
:100280008F5F80937C0082C085E090E00E947302C3
:100290004FEF89E698E1415080409040E1F700C07F
:1002A000000080917C008F5F80937C006FC086E0AF
:1002B00090E00E9473022FEF49E688E12150404010
:1002C0008040E1F700C0000080917C008F5F809348
:1002D0007C005CC082E40E944F029FEF29E648E167
:1002E000915020404040E1F700C0000080917C0028
:1002F0008F5F80937C004AC087E090E00E94730289
:100300008FEF99E628E1815090402040E1F700C04E
:10031000000080917C008F5F80937C0037C088E074
:1003200090E00E9473024FEF89E698E141508040CF
:100330009040E1F700C0000080917C008F5F8093C7
:100340007C0024C089E090E00E9473022FEF49E610
:1003500088E1215040408040E1F700C000008091DA
:100360007C008F5F80937C0011C083E40E944F0269
:100370009FEF29E648E1915020404040E1F700C05E
:10038000000080917C008F5F80937C0080917D00D5
:100390008D3089F48AE20E944F028FEF99E628E1BE
:1003A000815090402040E1F700C0000080917C0027
:1003B0008F5F80937C0080917D008E3091F48A2D38
:1003C0009B2D0E9473024FEF89E698E141508040D7
:1003D0009040E1F700C0000080917C008F5F809327
:1003E0007C0080917D008F3089F483E20E944F026F
:1003F0002FEF49E688E1215040408040E1F700C0FE
:10040000000080917C008F5F80937C0080917D0054
:10041000803189F484E40E944F029FEF29E648E18D
:10042000915020404040E1F700C0000080917C00E6
:100430008F5F80937C0010927D0080917C008031E2
:1004400029F410927C0081E00E94420221968CEFF8
:10045000D80EC430D10509F09ECEC39493E09C150C
:1004600008F089CEC12C87CE929A000000009298A5
:1004700008951ABA919A9098CF990E9434028FEFFA
:100480008ABB0895CF93C82F0E94390282B38C7F14
:1004900082BBCBBB0E9434021BBACF910895CF938D
:1004A000C82F0E943902909A9198CBBB0E943402C7
:1004B0001BBACF910895CF93DF93EC0188818823F5
:1004C00079F021960E944F022FEF85EA9EE021509D
:1004D00080409040E1F700C0000089918111F2CF87
:1004E000DF91CF9108954AE06EE770E00E948302A9
:1004F0008EE790E00E945B020895EE0FFF1F0590CB
:10050000F491E02D0994BB274A3031F4992322F469
:10051000BDE2909581959F4F0C948F02BB27FB0104
:100520005527AA27880F991FAA1FA41710F0A41BEC
:1005300083955051B9F7A05DAA3308F0A95DA19346
:10054000009779F7B111B1931192CB010C94A802E5
:10055000DC01FC01672F71917723E1F7329704C02A
:100560007C916D9370836291AE17BF07C8F30895B5
:04057000F894FFCF2D
:100574002057656C636F6D652021200020456E74E3
:0C05840065722061206B65793A20000050
:00000001FF
